{
  "contractName": "ProofOfExistence",
  "abi": [
    {
      "constant": true,
      "inputs": [
        {
          "name": "",
          "type": "bytes32"
        }
      ],
      "name": "hashToTags",
      "outputs": [
        {
          "name": "",
          "type": "string"
        }
      ],
      "payable": false,
      "stateMutability": "view",
      "type": "function"
    },
    {
      "constant": true,
      "inputs": [
        {
          "name": "",
          "type": "address"
        },
        {
          "name": "",
          "type": "uint256"
        }
      ],
      "name": "userToIds",
      "outputs": [
        {
          "name": "",
          "type": "uint256"
        }
      ],
      "payable": false,
      "stateMutability": "view",
      "type": "function"
    },
    {
      "constant": false,
      "inputs": [],
      "name": "renounceOwnership",
      "outputs": [],
      "payable": false,
      "stateMutability": "nonpayable",
      "type": "function"
    },
    {
      "constant": true,
      "inputs": [],
      "name": "stopped",
      "outputs": [
        {
          "name": "",
          "type": "bool"
        }
      ],
      "payable": false,
      "stateMutability": "view",
      "type": "function"
    },
    {
      "constant": true,
      "inputs": [
        {
          "name": "",
          "type": "uint256"
        }
      ],
      "name": "timestamps",
      "outputs": [
        {
          "name": "",
          "type": "uint256"
        }
      ],
      "payable": false,
      "stateMutability": "view",
      "type": "function"
    },
    {
      "constant": true,
      "inputs": [],
      "name": "owner",
      "outputs": [
        {
          "name": "",
          "type": "address"
        }
      ],
      "payable": false,
      "stateMutability": "view",
      "type": "function"
    },
    {
      "constant": true,
      "inputs": [
        {
          "name": "",
          "type": "uint256"
        }
      ],
      "name": "idToHash",
      "outputs": [
        {
          "name": "",
          "type": "bytes32"
        }
      ],
      "payable": false,
      "stateMutability": "view",
      "type": "function"
    },
    {
      "constant": false,
      "inputs": [
        {
          "name": "_newOwner",
          "type": "address"
        }
      ],
      "name": "transferOwnership",
      "outputs": [],
      "payable": false,
      "stateMutability": "nonpayable",
      "type": "function"
    },
    {
      "constant": true,
      "inputs": [
        {
          "name": "",
          "type": "bytes32"
        }
      ],
      "name": "hashToTimestamp",
      "outputs": [
        {
          "name": "",
          "type": "uint256"
        }
      ],
      "payable": false,
      "stateMutability": "view",
      "type": "function"
    },
    {
      "inputs": [],
      "payable": false,
      "stateMutability": "nonpayable",
      "type": "constructor"
    },
    {
      "anonymous": false,
      "inputs": [
        {
          "indexed": true,
          "name": "previousOwner",
          "type": "address"
        }
      ],
      "name": "OwnershipRenounced",
      "type": "event"
    },
    {
      "anonymous": false,
      "inputs": [
        {
          "indexed": true,
          "name": "previousOwner",
          "type": "address"
        },
        {
          "indexed": true,
          "name": "newOwner",
          "type": "address"
        }
      ],
      "name": "OwnershipTransferred",
      "type": "event"
    },
    {
      "constant": false,
      "inputs": [
        {
          "name": "_hash",
          "type": "bytes32"
        },
        {
          "name": "_tags",
          "type": "string"
        }
      ],
      "name": "timestamp",
      "outputs": [
        {
          "name": "",
          "type": "uint256"
        }
      ],
      "payable": false,
      "stateMutability": "nonpayable",
      "type": "function"
    },
    {
      "constant": true,
      "inputs": [
        {
          "name": "user",
          "type": "address"
        }
      ],
      "name": "getAllIds",
      "outputs": [
        {
          "name": "",
          "type": "uint256[]"
        }
      ],
      "payable": false,
      "stateMutability": "view",
      "type": "function"
    },
    {
      "constant": false,
      "inputs": [],
      "name": "emergencyStop",
      "outputs": [],
      "payable": false,
      "stateMutability": "nonpayable",
      "type": "function"
    },
    {
      "constant": false,
      "inputs": [],
      "name": "restoreFromEmergency",
      "outputs": [],
      "payable": false,
      "stateMutability": "nonpayable",
      "type": "function"
    }
  ],
  "bytecode": "0x60806040526001805460a060020a60ff021916905534801561002057600080fd5b506000805433600160a060020a03199182168117835560018054909216179055610a6690819061005090396000f3006080604052600436106100c45763ffffffff7c010000000000000000000000000000000000000000000000000000000060003504166324e1e5c581146100c957806363a599a414610139578063695c2698146101505780636a830f27146101dd578063715018a61461020157806375f12b21146102165780638bc33af31461023f5780638da5cb5b146102575780638fb5548f14610288578063b9f666f9146102a0578063f2fde38b14610311578063fac5db2014610332578063fc4c20a21461034a575b600080fd5b3480156100d557600080fd5b5060408051602060046024803582810135601f810185900485028601850190965285855261012795833595369560449491939091019190819084018382808284375094975061035f9650505050505050565b60408051918252519081900360200190f35b34801561014557600080fd5b5061014e610560565b005b34801561015c57600080fd5b506101686004356105e7565b6040805160208082528351818301528351919283929083019185019080838360005b838110156101a257818101518382015260200161018a565b50505050905090810190601f1680156101cf5780820380516001836020036101000a031916815260200191505b509250505060405180910390f35b3480156101e957600080fd5b50610127600160a060020a0360043516602435610682565b34801561020d57600080fd5b5061014e6106b2565b34801561022257600080fd5b5061022b610757565b604080519115158252519081900360200190f35b34801561024b57600080fd5b50610127600435610778565b34801561026357600080fd5b5061026c610797565b60408051600160a060020a039092168252519081900360200190f35b34801561029457600080fd5b506101276004356107a6565b3480156102ac57600080fd5b506102c1600160a060020a03600435166107b8565b60408051602080825283518183015283519192839290830191858101910280838360005b838110156102fd5781810151838201526020016102e5565b505050509050019250505060405180910390f35b34801561031d57600080fd5b5061014e600160a060020a0360043516610824565b34801561033e57600080fd5b50610127600435610880565b34801561035657600080fd5b5061014e610892565b6001546000908190819074010000000000000000000000000000000000000000900460ff1615610425576040805160e560020a62461bcd02815260206004820152604a60248201527f456d657267656e63792073746f702e2043616e7420657865637574652074686960448201527f73206e6f772e20526573746f72652066726f6d20656d657267656e637920746f60648201527f20636f6e74696e75652e00000000000000000000000000000000000000000000608482015290519081900360a40190fd5b600085815260046020526040902054915081156104b2576040805160e560020a62461bcd02815260206004820152602160248201527f54686973206861736820697320616c72656164792074696d657374616d70656460448201527f2e00000000000000000000000000000000000000000000000000000000000000606482015290519081900360840190fd5b5060028054600181018255427f405787fa12a823e0f2b7631cc41b3ba8828b3321ca811111fa75cd3aa3bb5ace820155600081815260036020526040902086905581549091908290811061050257fe5b6000918252602080832090910154878352600482526040808420919091556005825290912085516105359287019061097f565b5033600090815260066020908152604082208054600181018255908352912001819055949350505050565b600154600160a060020a031633146105b0576040805160e560020a62461bcd02815260206004820152601b6024820152600080516020610a1b833981519152604482015290519081900360640190fd5b6001805474ff0000000000000000000000000000000000000000191674010000000000000000000000000000000000000000179055565b60056020908152600091825260409182902080548351601f60026000196101006001861615020190931692909204918201849004840281018401909452808452909183018282801561067a5780601f1061064f5761010080835404028352916020019161067a565b820191906000526020600020905b81548152906001019060200180831161065d57829003601f168201915b505050505081565b60066020528160005260406000208181548110151561069d57fe5b90600052602060002001600091509150505481565b600154600160a060020a03163314610702576040805160e560020a62461bcd02815260206004820152601b6024820152600080516020610a1b833981519152604482015290519081900360640190fd5b60008054604051600160a060020a03909116917ff8df31144d9c2f0f6b59d69b8b98abd5459d07f2742c4df920b25aae33c6482091a26000805473ffffffffffffffffffffffffffffffffffffffff19169055565b60015474010000000000000000000000000000000000000000900460ff1681565b600280548290811061078657fe5b600091825260209091200154905081565b600154600160a060020a031681565b60036020526000908152604090205481565b600160a060020a03811660009081526006602090815260409182902080548351818402810184019094528084526060939283018282801561081857602002820191906000526020600020905b815481526020019060010190808311610804575b50505050509050919050565b600154600160a060020a03163314610874576040805160e560020a62461bcd02815260206004820152601b6024820152600080516020610a1b833981519152604482015290519081900360640190fd5b61087d81610902565b50565b60046020526000908152604090205481565b600154600160a060020a031633146108e2576040805160e560020a62461bcd02815260206004820152601b6024820152600080516020610a1b833981519152604482015290519081900360640190fd5b6001805474ff000000000000000000000000000000000000000019169055565b600160a060020a038116151561091757600080fd5b60008054604051600160a060020a03808516939216917f8be0079c531659141344cd1fd0a4f28419497f9722a3daafe3b4186f6b6457e091a36000805473ffffffffffffffffffffffffffffffffffffffff1916600160a060020a0392909216919091179055565b828054600181600116156101000203166002900490600052602060002090601f016020900481019282601f106109c057805160ff19168380011785556109ed565b828001600101855582156109ed579182015b828111156109ed5782518255916020019190600101906109d2565b506109f99291506109fd565b5090565b610a1791905b808211156109f95760008155600101610a03565b90560043616c6c65722073686f756c6420626520746865206f776e65722e0000000000a165627a7a72305820127ada6926079fa80eaade44886ecdac960e5190d0fa9bd2755af3ed4bc0fb080029",
  "source": "pragma solidity 0.4.24;\n\nimport \"openzeppelin-solidity/contracts/ownership/Ownable.sol\";\n\n/**\n * @title A proof of existence contract that stores decoded IPFS path and tags along with a timestamp as immutable records.\n */\ncontract ProofOfExistence is Ownable{\n\n    /**\n     * @dev Sets the caller as the owner of the contract.\n     */\n    constructor() public {\n        owner = msg.sender;\n    }\n\n    address public owner;\n    bool public stopped = false;\n\n    modifier onlyOwner {\n        require(owner == msg.sender, \"Caller should be the owner.\");\n        _;\n    }\n\n    modifier onlyWhenNotStopped {\n        require(stopped == false, \"Emergency stop. Cant execute this now. Restore from emergency to continue.\");\n        _;\n    }\n\n    uint[] public timestamps;\n\n    mapping(uint => bytes32) public idToHash;\n    mapping(bytes32 => uint) public hashToTimestamp;\n    mapping(bytes32 => string) public hashToTags;\n    mapping(address => uint[]) public userToIds;\n\n    /**\n     * @dev Timestamps and saves to registry. Records are immutable thus they can be proofs of existence.\n     * @param _hash Decoded IPFS path. To btain the original IPFS path add \"1220\" as a prefix and encode to base 58.\n     * @param _tags Tags as additional details to content.\n     */\n    function timestamp(bytes32 _hash, string _tags) public onlyWhenNotStopped returns (uint) {\n        uint previousTimestamp = hashToTimestamp[_hash];\n        require (previousTimestamp == 0, \"This hash is already timestamped.\");\n        uint id = timestamps.push(block.timestamp) - 1;\n\n        idToHash[id] = _hash;\n        hashToTimestamp[_hash] = timestamps[id];\n        hashToTags[_hash] = _tags;\n        userToIds[msg.sender].push(id);\n\n        return id;\n    }\n\n    /**\n     * @dev Getter function for retrieving all IDs that belongs to given user at once.\n     * @param user address for querying IDs\n     */\n    function getAllIds(address user) public view returns (uint256[]) {\n        return userToIds[user];\n    }\n\n    /**\n     * @dev Stopping function of the Emergency Stop pattern. Disables the timestamp function.\n     */\n    function emergencyStop() public onlyOwner {\n        stopped = true;\n    }\n\n    /**\n     * @dev Restoring function of the Emergency Stop pattern. Enables the timestamp function.\n     */\n    function restoreFromEmergency() public onlyOwner {\n        stopped = false;\n    }\n\n}\n",
  "sourcePath": "/home/u/repos/consensys-dev-final/src/ethereum/contracts/ProofOfExistence.sol",
  "compiler": {
    "name": "solc",
    "version": "0.4.24+commit.e67f0147.Emscripten.clang"
  },
  "schemaVersion": "2.0.1",
  "updatedAt": "2018-08-26T09:50:32.620Z"
}